{
  "contractName": "BlackBoxAccessPass",
  "abi": [
    {
      "inputs": [],
      "stateMutability": "nonpayable",
      "type": "constructor"
    },
    {
      "anonymous": false,
      "inputs": [
        {
          "indexed": true,
          "internalType": "address",
          "name": "owner",
          "type": "address"
        },
        {
          "indexed": true,
          "internalType": "address",
          "name": "approved",
          "type": "address"
        },
        {
          "indexed": true,
          "internalType": "uint256",
          "name": "tokenId",
          "type": "uint256"
        }
      ],
      "name": "Approval",
      "type": "event"
    },
    {
      "anonymous": false,
      "inputs": [
        {
          "indexed": true,
          "internalType": "address",
          "name": "owner",
          "type": "address"
        },
        {
          "indexed": true,
          "internalType": "address",
          "name": "operator",
          "type": "address"
        },
        {
          "indexed": false,
          "internalType": "bool",
          "name": "approved",
          "type": "bool"
        }
      ],
      "name": "ApprovalForAll",
      "type": "event"
    },
    {
      "anonymous": false,
      "inputs": [
        {
          "indexed": true,
          "internalType": "address",
          "name": "previousOwner",
          "type": "address"
        },
        {
          "indexed": true,
          "internalType": "address",
          "name": "newOwner",
          "type": "address"
        }
      ],
      "name": "OwnershipTransferred",
      "type": "event"
    },
    {
      "anonymous": false,
      "inputs": [
        {
          "indexed": true,
          "internalType": "address",
          "name": "from",
          "type": "address"
        },
        {
          "indexed": true,
          "internalType": "address",
          "name": "to",
          "type": "address"
        },
        {
          "indexed": true,
          "internalType": "uint256",
          "name": "tokenId",
          "type": "uint256"
        }
      ],
      "name": "Transfer",
      "type": "event"
    },
    {
      "inputs": [],
      "name": "MAX_ACCESS_PASS",
      "outputs": [
        {
          "internalType": "uint256",
          "name": "",
          "type": "uint256"
        }
      ],
      "stateMutability": "view",
      "type": "function",
      "constant": true
    },
    {
      "inputs": [
        {
          "internalType": "address",
          "name": "to",
          "type": "address"
        },
        {
          "internalType": "uint256",
          "name": "tokenId",
          "type": "uint256"
        }
      ],
      "name": "approve",
      "outputs": [],
      "stateMutability": "nonpayable",
      "type": "function"
    },
    {
      "inputs": [
        {
          "internalType": "address",
          "name": "owner",
          "type": "address"
        }
      ],
      "name": "balanceOf",
      "outputs": [
        {
          "internalType": "uint256",
          "name": "",
          "type": "uint256"
        }
      ],
      "stateMutability": "view",
      "type": "function",
      "constant": true
    },
    {
      "inputs": [],
      "name": "baseURI",
      "outputs": [
        {
          "internalType": "string",
          "name": "",
          "type": "string"
        }
      ],
      "stateMutability": "view",
      "type": "function",
      "constant": true
    },
    {
      "inputs": [
        {
          "internalType": "uint256",
          "name": "tokenId",
          "type": "uint256"
        }
      ],
      "name": "burn",
      "outputs": [],
      "stateMutability": "nonpayable",
      "type": "function"
    },
    {
      "inputs": [
        {
          "internalType": "uint256",
          "name": "tokenId",
          "type": "uint256"
        }
      ],
      "name": "getApproved",
      "outputs": [
        {
          "internalType": "address",
          "name": "",
          "type": "address"
        }
      ],
      "stateMutability": "view",
      "type": "function",
      "constant": true
    },
    {
      "inputs": [
        {
          "internalType": "address",
          "name": "owner",
          "type": "address"
        },
        {
          "internalType": "address",
          "name": "operator",
          "type": "address"
        }
      ],
      "name": "isApprovedForAll",
      "outputs": [
        {
          "internalType": "bool",
          "name": "",
          "type": "bool"
        }
      ],
      "stateMutability": "view",
      "type": "function",
      "constant": true
    },
    {
      "inputs": [],
      "name": "maxPassTxn",
      "outputs": [
        {
          "internalType": "uint256",
          "name": "",
          "type": "uint256"
        }
      ],
      "stateMutability": "view",
      "type": "function",
      "constant": true
    },
    {
      "inputs": [],
      "name": "name",
      "outputs": [
        {
          "internalType": "string",
          "name": "",
          "type": "string"
        }
      ],
      "stateMutability": "view",
      "type": "function",
      "constant": true
    },
    {
      "inputs": [],
      "name": "owner",
      "outputs": [
        {
          "internalType": "address",
          "name": "",
          "type": "address"
        }
      ],
      "stateMutability": "view",
      "type": "function",
      "constant": true
    },
    {
      "inputs": [
        {
          "internalType": "uint256",
          "name": "tokenId",
          "type": "uint256"
        }
      ],
      "name": "ownerOf",
      "outputs": [
        {
          "internalType": "address",
          "name": "",
          "type": "address"
        }
      ],
      "stateMutability": "view",
      "type": "function",
      "constant": true
    },
    {
      "inputs": [],
      "name": "passPrice",
      "outputs": [
        {
          "internalType": "uint256",
          "name": "",
          "type": "uint256"
        }
      ],
      "stateMutability": "view",
      "type": "function",
      "constant": true
    },
    {
      "inputs": [],
      "name": "provenance",
      "outputs": [
        {
          "internalType": "string",
          "name": "",
          "type": "string"
        }
      ],
      "stateMutability": "view",
      "type": "function",
      "constant": true
    },
    {
      "inputs": [],
      "name": "renounceOwnership",
      "outputs": [],
      "stateMutability": "nonpayable",
      "type": "function"
    },
    {
      "inputs": [
        {
          "internalType": "address",
          "name": "from",
          "type": "address"
        },
        {
          "internalType": "address",
          "name": "to",
          "type": "address"
        },
        {
          "internalType": "uint256",
          "name": "tokenId",
          "type": "uint256"
        }
      ],
      "name": "safeTransferFrom",
      "outputs": [],
      "stateMutability": "nonpayable",
      "type": "function"
    },
    {
      "inputs": [
        {
          "internalType": "address",
          "name": "from",
          "type": "address"
        },
        {
          "internalType": "address",
          "name": "to",
          "type": "address"
        },
        {
          "internalType": "uint256",
          "name": "tokenId",
          "type": "uint256"
        },
        {
          "internalType": "bytes",
          "name": "_data",
          "type": "bytes"
        }
      ],
      "name": "safeTransferFrom",
      "outputs": [],
      "stateMutability": "nonpayable",
      "type": "function"
    },
    {
      "inputs": [],
      "name": "saleIsActive",
      "outputs": [
        {
          "internalType": "bool",
          "name": "",
          "type": "bool"
        }
      ],
      "stateMutability": "view",
      "type": "function",
      "constant": true
    },
    {
      "inputs": [
        {
          "internalType": "address",
          "name": "operator",
          "type": "address"
        },
        {
          "internalType": "bool",
          "name": "approved",
          "type": "bool"
        }
      ],
      "name": "setApprovalForAll",
      "outputs": [],
      "stateMutability": "nonpayable",
      "type": "function"
    },
    {
      "inputs": [],
      "name": "startingIndex",
      "outputs": [
        {
          "internalType": "uint256",
          "name": "",
          "type": "uint256"
        }
      ],
      "stateMutability": "view",
      "type": "function",
      "constant": true
    },
    {
      "inputs": [],
      "name": "startingIndexBlock",
      "outputs": [
        {
          "internalType": "uint256",
          "name": "",
          "type": "uint256"
        }
      ],
      "stateMutability": "view",
      "type": "function",
      "constant": true
    },
    {
      "inputs": [],
      "name": "symbol",
      "outputs": [
        {
          "internalType": "string",
          "name": "",
          "type": "string"
        }
      ],
      "stateMutability": "view",
      "type": "function",
      "constant": true
    },
    {
      "inputs": [
        {
          "internalType": "uint256",
          "name": "index",
          "type": "uint256"
        }
      ],
      "name": "tokenByIndex",
      "outputs": [
        {
          "internalType": "uint256",
          "name": "",
          "type": "uint256"
        }
      ],
      "stateMutability": "view",
      "type": "function",
      "constant": true
    },
    {
      "inputs": [
        {
          "internalType": "address",
          "name": "owner",
          "type": "address"
        },
        {
          "internalType": "uint256",
          "name": "index",
          "type": "uint256"
        }
      ],
      "name": "tokenOfOwnerByIndex",
      "outputs": [
        {
          "internalType": "uint256",
          "name": "",
          "type": "uint256"
        }
      ],
      "stateMutability": "view",
      "type": "function",
      "constant": true
    },
    {
      "inputs": [
        {
          "internalType": "uint256",
          "name": "tokenId",
          "type": "uint256"
        }
      ],
      "name": "tokenURI",
      "outputs": [
        {
          "internalType": "string",
          "name": "",
          "type": "string"
        }
      ],
      "stateMutability": "view",
      "type": "function",
      "constant": true
    },
    {
      "inputs": [],
      "name": "totalSupply",
      "outputs": [
        {
          "internalType": "uint256",
          "name": "",
          "type": "uint256"
        }
      ],
      "stateMutability": "view",
      "type": "function",
      "constant": true
    },
    {
      "inputs": [
        {
          "internalType": "address",
          "name": "from",
          "type": "address"
        },
        {
          "internalType": "address",
          "name": "to",
          "type": "address"
        },
        {
          "internalType": "uint256",
          "name": "tokenId",
          "type": "uint256"
        }
      ],
      "name": "transferFrom",
      "outputs": [],
      "stateMutability": "nonpayable",
      "type": "function"
    },
    {
      "inputs": [
        {
          "internalType": "address",
          "name": "newOwner",
          "type": "address"
        }
      ],
      "name": "transferOwnership",
      "outputs": [],
      "stateMutability": "nonpayable",
      "type": "function"
    },
    {
      "inputs": [
        {
          "internalType": "address",
          "name": "manager",
          "type": "address"
        }
      ],
      "name": "setManager",
      "outputs": [],
      "stateMutability": "nonpayable",
      "type": "function"
    },
    {
      "inputs": [
        {
          "internalType": "string",
          "name": "newBaseURI",
          "type": "string"
        }
      ],
      "name": "setBaseURI",
      "outputs": [],
      "stateMutability": "nonpayable",
      "type": "function"
    },
    {
      "inputs": [],
      "name": "totalToken",
      "outputs": [
        {
          "internalType": "uint256",
          "name": "",
          "type": "uint256"
        }
      ],
      "stateMutability": "view",
      "type": "function",
      "constant": true
    },
    {
      "inputs": [],
      "name": "contractBalance",
      "outputs": [
        {
          "internalType": "uint256",
          "name": "",
          "type": "uint256"
        }
      ],
      "stateMutability": "view",
      "type": "function",
      "constant": true
    },
    {
      "inputs": [],
      "name": "flipSale",
      "outputs": [],
      "stateMutability": "nonpayable",
      "type": "function"
    },
    {
      "inputs": [],
      "name": "stateSale",
      "outputs": [
        {
          "internalType": "bool",
          "name": "",
          "type": "bool"
        }
      ],
      "stateMutability": "view",
      "type": "function",
      "constant": true
    },
    {
      "inputs": [
        {
          "internalType": "uint256",
          "name": "amount",
          "type": "uint256"
        }
      ],
      "name": "withdraw",
      "outputs": [],
      "stateMutability": "payable",
      "type": "function",
      "payable": true
    },
    {
      "inputs": [
        {
          "internalType": "uint256",
          "name": "reserveAmount",
          "type": "uint256"
        },
        {
          "internalType": "address",
          "name": "mintAddress",
          "type": "address"
        }
      ],
      "name": "reserveMintAccessPass",
      "outputs": [],
      "stateMutability": "nonpayable",
      "type": "function"
    },
    {
      "inputs": [
        {
          "internalType": "uint256",
          "name": "numberOfTokens",
          "type": "uint256"
        }
      ],
      "name": "mintAccessPass",
      "outputs": [],
      "stateMutability": "payable",
      "type": "function",
      "payable": true
    },
    {
      "inputs": [],
      "name": "setStartingIndex",
      "outputs": [],
      "stateMutability": "nonpayable",
      "type": "function"
    },
    {
      "inputs": [],
      "name": "emergencySetStartingIndexBlock",
      "outputs": [],
      "stateMutability": "nonpayable",
      "type": "function"
    },
    {
      "inputs": [
        {
          "internalType": "string",
          "name": "provenanceHash",
          "type": "string"
        }
      ],
      "name": "setProvenanceHash",
      "outputs": [],
      "stateMutability": "nonpayable",
      "type": "function"
    },
    {
      "inputs": [
        {
          "internalType": "bytes4",
          "name": "interfaceId",
          "type": "bytes4"
        }
      ],
      "name": "supportsInterface",
      "outputs": [
        {
          "internalType": "bool",
          "name": "",
          "type": "bool"
        }
      ],
      "stateMutability": "view",
      "type": "function",
      "constant": true
    }
  ],
  "bytecode": "0x6080604052611388600c556000600e60006101000a81548160ff0219169083151502179055503480156200003257600080fd5b506040518060400160405280602081526020017f424c41434b20424f5820434f4c4c4543544956452041434345535320504153538152506040518060400160405280600b81526020017f41434345535320504153530000000000000000000000000000000000000000008152508160009080519060200190620000b792919062000233565b508060019080519060200190620000d092919062000233565b505050620000f3620000e76200016560201b60201c565b6200016d60201b60201c565b7324209282e198e7a807806f55a3322b98d3c65b29600f60006001811062000120576200011f620002e3565b5b0160006101000a81548173ffffffffffffffffffffffffffffffffffffffff021916908373ffffffffffffffffffffffffffffffffffffffff16021790555062000377565b600033905090565b6000600a60009054906101000a900473ffffffffffffffffffffffffffffffffffffffff16905081600a60006101000a81548173ffffffffffffffffffffffffffffffffffffffff021916908373ffffffffffffffffffffffffffffffffffffffff1602179055508173ffffffffffffffffffffffffffffffffffffffff168173ffffffffffffffffffffffffffffffffffffffff167f8be0079c531659141344cd1fd0a4f28419497f9722a3daafe3b4186f6b6457e060405160405180910390a35050565b828054620002419062000341565b90600052602060002090601f016020900481019282620002655760008555620002b1565b82601f106200028057805160ff1916838001178555620002b1565b82800160010185558215620002b1579182015b82811115620002b057825182559160200191906001019062000293565b5b509050620002c09190620002c4565b5090565b5b80821115620002df576000816000905550600101620002c5565b5090565b7f4e487b7100000000000000000000000000000000000000000000000000000000600052603260045260246000fd5b7f4e487b7100000000000000000000000000000000000000000000000000000000600052602260045260246000fd5b600060028204905060018216806200035a57607f821691505b6020821081141562000371576200037062000312565b5b50919050565b614e8d80620003876000396000f3fe60806040526004361061023b5760003560e01c8063728e0c3d1161012e578063c87b56dd116100ab578063e36d64981161006f578063e36d649814610831578063e985e9c51461085c578063e986655014610899578063eb8d2444146108b0578063f2fde38b146108db5761023b565b8063c87b56dd1461074a578063ca3286f514610787578063cb774d47146107b2578063cf1582e8146107dd578063d0ebdbe7146108085761023b565b806395d89b41116100f257806395d89b4114610686578063a22cb465146106b1578063ae9de7f6146106da578063b88d4fde146106f6578063c4d6a1fb1461071f5761023b565b8063728e0c3d146105d75780637ba5e621146106025780637d17fcbe146106195780638b7afe2e146106305780638da5cb5b1461065b5761023b565b806342842e0e116101bc578063626be56711610180578063626be567146104f05780636352211e1461051b5780636c0360eb1461055857806370a0823114610583578063715018a6146105c05761023b565b806342842e0e1461040f57806342966c681461043857806346b73c20146104615780634f6ccce71461048a57806355f804b3146104c75761023b565b80631096952311610203578063109695231461033957806318160ddd1461036257806323b872dd1461038d5780632e1a7d4d146103b65780632f745c59146103d25761023b565b806301ffc9a71461024057806306fdde031461027d578063081812fc146102a8578063095ea7b3146102e55780630f7309e81461030e575b600080fd5b34801561024c57600080fd5b50610267600480360381019061026291906135b1565b610904565b60405161027491906135f9565b60405180910390f35b34801561028957600080fd5b50610292610916565b60405161029f91906136ad565b60405180910390f35b3480156102b457600080fd5b506102cf60048036038101906102ca9190613705565b6109a8565b6040516102dc9190613773565b60405180910390f35b3480156102f157600080fd5b5061030c600480360381019061030791906137ba565b610a2d565b005b34801561031a57600080fd5b50610323610b45565b60405161033091906136ad565b60405180910390f35b34801561034557600080fd5b50610360600480360381019061035b919061392f565b610bd3565b005b34801561036e57600080fd5b50610377610cc8565b6040516103849190613987565b60405180910390f35b34801561039957600080fd5b506103b460048036038101906103af91906139a2565b610cd5565b005b6103d060048036038101906103cb9190613705565b610d35565b005b3480156103de57600080fd5b506103f960048036038101906103f491906137ba565b610f1f565b6040516104069190613987565b60405180910390f35b34801561041b57600080fd5b50610436600480360381019061043191906139a2565b610fc4565b005b34801561044457600080fd5b5061045f600480360381019061045a9190613705565b610fe4565b005b34801561046d57600080fd5b50610488600480360381019061048391906139f5565b611040565b005b34801561049657600080fd5b506104b160048036038101906104ac9190613705565b6111c5565b6040516104be9190613987565b60405180910390f35b3480156104d357600080fd5b506104ee60048036038101906104e9919061392f565b611236565b005b3480156104fc57600080fd5b5061050561132b565b6040516105129190613987565b60405180910390f35b34801561052757600080fd5b50610542600480360381019061053d9190613705565b61133c565b60405161054f9190613773565b60405180910390f35b34801561056457600080fd5b5061056d6113ee565b60405161057a91906136ad565b60405180910390f35b34801561058f57600080fd5b506105aa60048036038101906105a59190613a35565b61147c565b6040516105b79190613987565b60405180910390f35b3480156105cc57600080fd5b506105d5611534565b005b3480156105e357600080fd5b506105ec6115bc565b6040516105f99190613987565b60405180910390f35b34801561060e57600080fd5b506106176115c2565b005b34801561062557600080fd5b5061062e6116c9565b005b34801561063c57600080fd5b506106456117f2565b6040516106529190613987565b60405180910390f35b34801561066757600080fd5b506106706118d5565b60405161067d9190613773565b60405180910390f35b34801561069257600080fd5b5061069b6118ff565b6040516106a891906136ad565b60405180910390f35b3480156106bd57600080fd5b506106d860048036038101906106d39190613a8e565b611991565b005b6106f460048036038101906106ef9190613705565b611b12565b005b34801561070257600080fd5b5061071d60048036038101906107189190613b6f565b611cad565b005b34801561072b57600080fd5b50610734611d0f565b60405161074191906135f9565b60405180910390f35b34801561075657600080fd5b50610771600480360381019061076c9190613705565b611d26565b60405161077e91906136ad565b60405180910390f35b34801561079357600080fd5b5061079c611dcd565b6040516107a99190613987565b60405180910390f35b3480156107be57600080fd5b506107c7611dd9565b6040516107d49190613987565b60405180910390f35b3480156107e957600080fd5b506107f2611ddf565b6040516107ff9190613987565b60405180910390f35b34801561081457600080fd5b5061082f600480360381019061082a9190613a35565b611de4565b005b34801561083d57600080fd5b50610846611ea4565b6040516108539190613987565b60405180910390f35b34801561086857600080fd5b50610883600480360381019061087e9190613bf2565b611eaa565b60405161089091906135f9565b60405180910390f35b3480156108a557600080fd5b506108ae611f3e565b005b3480156108bc57600080fd5b506108c561210f565b6040516108d291906135f9565b60405180910390f35b3480156108e757600080fd5b5061090260048036038101906108fd9190613a35565b612122565b005b600061090f8261221a565b9050919050565b60606000805461092590613c61565b80601f016020809104026020016040519081016040528092919081815260200182805461095190613c61565b801561099e5780601f106109735761010080835404028352916020019161099e565b820191906000526020600020905b81548152906001019060200180831161098157829003601f168201915b5050505050905090565b60006109b382612294565b6109f2576040517f08c379a00000000000000000000000000000000000000000000000000000000081526004016109e990613d05565b60405180910390fd5b6004600083815260200190815260200160002060009054906101000a900473ffffffffffffffffffffffffffffffffffffffff169050919050565b6000610a388261133c565b90508073ffffffffffffffffffffffffffffffffffffffff168373ffffffffffffffffffffffffffffffffffffffff161415610aa9576040517f08c379a0000000000000000000000000000000000000000000000000000000008152600401610aa090613d97565b60405180910390fd5b8073ffffffffffffffffffffffffffffffffffffffff16610ac8612300565b73ffffffffffffffffffffffffffffffffffffffff161480610af75750610af681610af1612300565b611eaa565b5b610b36576040517f08c379a0000000000000000000000000000000000000000000000000000000008152600401610b2d90613e29565b60405180910390fd5b610b408383612308565b505050565b60138054610b5290613c61565b80601f0160208091040260200160405190810160405280929190818152602001828054610b7e90613c61565b8015610bcb5780601f10610ba057610100808354040283529160200191610bcb565b820191906000526020600020905b815481529060010190602001808311610bae57829003601f168201915b505050505081565b610bdb612300565b73ffffffffffffffffffffffffffffffffffffffff16610bf96118d5565b73ffffffffffffffffffffffffffffffffffffffff161480610c6f5750610c1e612300565b73ffffffffffffffffffffffffffffffffffffffff16601060009054906101000a900473ffffffffffffffffffffffffffffffffffffffff1673ffffffffffffffffffffffffffffffffffffffff16145b610cae576040517f08c379a0000000000000000000000000000000000000000000000000000000008152600401610ca590613ebb565b60405180910390fd5b8060139080519060200190610cc49291906134a2565b5050565b6000600880549050905090565b610ce6610ce0612300565b826123c1565b610d25576040517f08c379a0000000000000000000000000000000000000000000000000000000008152600401610d1c90613f4d565b60405180910390fd5b610d3083838361249f565b505050565b610d3d612300565b73ffffffffffffffffffffffffffffffffffffffff16610d5b6118d5565b73ffffffffffffffffffffffffffffffffffffffff161480610dd15750610d80612300565b73ffffffffffffffffffffffffffffffffffffffff16601060009054906101000a900473ffffffffffffffffffffffffffffffffffffffff1673ffffffffffffffffffffffffffffffffffffffff16145b610e10576040517f08c379a0000000000000000000000000000000000000000000000000000000008152600401610e0790613ebb565b60405180910390fd5b80471015610e53576040517f08c379a0000000000000000000000000000000000000000000000000000000008152600401610e4a90613fb9565b60405180910390fd5b6000600190506000670de0b6b3a764000083610e6f9190614008565b90508181610e7d9190614091565b905060005b82811015610f1957600f8160018110610e9e57610e9d6140c2565b5b0160009054906101000a900473ffffffffffffffffffffffffffffffffffffffff1673ffffffffffffffffffffffffffffffffffffffff166108fc839081150290604051600060405180830381858888f19350505050158015610f05573d6000803e3d6000fd5b508080610f11906140f1565b915050610e82565b50505050565b6000610f2a8361147c565b8210610f6b576040517f08c379a0000000000000000000000000000000000000000000000000000000008152600401610f62906141ac565b60405180910390fd5b600660008473ffffffffffffffffffffffffffffffffffffffff1673ffffffffffffffffffffffffffffffffffffffff168152602001908152602001600020600083815260200190815260200160002054905092915050565b610fdf83838360405180602001604052806000815250611cad565b505050565b610ff5610fef612300565b826123c1565b611034576040517f08c379a000000000000000000000000000000000000000000000000000000000815260040161102b9061423e565b60405180910390fd5b61103d816126fb565b50565b611048612300565b73ffffffffffffffffffffffffffffffffffffffff166110666118d5565b73ffffffffffffffffffffffffffffffffffffffff1614806110dc575061108b612300565b73ffffffffffffffffffffffffffffffffffffffff16601060009054906101000a900473ffffffffffffffffffffffffffffffffffffffff1673ffffffffffffffffffffffffffffffffffffffff16145b61111b576040517f08c379a000000000000000000000000000000000000000000000000000000000815260040161111290613ebb565b60405180910390fd5b600c54611126610cc8565b1115611167576040517f08c379a000000000000000000000000000000000000000000000000000000000815260040161115e906142d0565b60405180910390fd5b6000611173600b61280c565b905060005b838110156111bf576111968360018461119191906142f0565b61281a565b6111a0600b612838565b6111aa600b61280c565b915080806111b7906140f1565b915050611178565b50505050565b60006111cf610cc8565b8210611210576040517f08c379a0000000000000000000000000000000000000000000000000000000008152600401611207906143b8565b60405180910390fd5b60088281548110611224576112236140c2565b5b90600052602060002001549050919050565b61123e612300565b73ffffffffffffffffffffffffffffffffffffffff1661125c6118d5565b73ffffffffffffffffffffffffffffffffffffffff1614806112d25750611281612300565b73ffffffffffffffffffffffffffffffffffffffff16601060009054906101000a900473ffffffffffffffffffffffffffffffffffffffff1673ffffffffffffffffffffffffffffffffffffffff16145b611311576040517f08c379a000000000000000000000000000000000000000000000000000000000815260040161130890613ebb565b60405180910390fd5b80600d90805190602001906113279291906134a2565b5050565b6000611337600b61280c565b905090565b6000806002600084815260200190815260200160002060009054906101000a900473ffffffffffffffffffffffffffffffffffffffff169050600073ffffffffffffffffffffffffffffffffffffffff168173ffffffffffffffffffffffffffffffffffffffff1614156113e5576040517f08c379a00000000000000000000000000000000000000000000000000000000081526004016113dc9061444a565b60405180910390fd5b80915050919050565b600d80546113fb90613c61565b80601f016020809104026020016040519081016040528092919081815260200182805461142790613c61565b80156114745780601f1061144957610100808354040283529160200191611474565b820191906000526020600020905b81548152906001019060200180831161145757829003601f168201915b505050505081565b60008073ffffffffffffffffffffffffffffffffffffffff168273ffffffffffffffffffffffffffffffffffffffff1614156114ed576040517f08c379a00000000000000000000000000000000000000000000000000000000081526004016114e4906144dc565b60405180910390fd5b600360008373ffffffffffffffffffffffffffffffffffffffff1673ffffffffffffffffffffffffffffffffffffffff168152602001908152602001600020549050919050565b61153c612300565b73ffffffffffffffffffffffffffffffffffffffff1661155a6118d5565b73ffffffffffffffffffffffffffffffffffffffff16146115b0576040517f08c379a00000000000000000000000000000000000000000000000000000000081526004016115a790614548565b60405180910390fd5b6115ba600061284e565b565b600c5481565b6115ca612300565b73ffffffffffffffffffffffffffffffffffffffff166115e86118d5565b73ffffffffffffffffffffffffffffffffffffffff16148061165e575061160d612300565b73ffffffffffffffffffffffffffffffffffffffff16601060009054906101000a900473ffffffffffffffffffffffffffffffffffffffff1673ffffffffffffffffffffffffffffffffffffffff16145b61169d576040517f08c379a000000000000000000000000000000000000000000000000000000000815260040161169490613ebb565b60405180910390fd5b600e60009054906101000a900460ff1615600e60006101000a81548160ff021916908315150217905550565b6116d1612300565b73ffffffffffffffffffffffffffffffffffffffff166116ef6118d5565b73ffffffffffffffffffffffffffffffffffffffff1614806117655750611714612300565b73ffffffffffffffffffffffffffffffffffffffff16601060009054906101000a900473ffffffffffffffffffffffffffffffffffffffff1673ffffffffffffffffffffffffffffffffffffffff16145b6117a4576040517f08c379a000000000000000000000000000000000000000000000000000000000815260040161179b90613ebb565b60405180910390fd5b6000601154146117e9576040517f08c379a00000000000000000000000000000000000000000000000000000000081526004016117e0906145b4565b60405180910390fd5b43601281905550565b60006117fc612300565b73ffffffffffffffffffffffffffffffffffffffff1661181a6118d5565b73ffffffffffffffffffffffffffffffffffffffff161480611890575061183f612300565b73ffffffffffffffffffffffffffffffffffffffff16601060009054906101000a900473ffffffffffffffffffffffffffffffffffffffff1673ffffffffffffffffffffffffffffffffffffffff16145b6118cf576040517f08c379a00000000000000000000000000000000000000000000000000000000081526004016118c690613ebb565b60405180910390fd5b47905090565b6000600a60009054906101000a900473ffffffffffffffffffffffffffffffffffffffff16905090565b60606001805461190e90613c61565b80601f016020809104026020016040519081016040528092919081815260200182805461193a90613c61565b80156119875780601f1061195c57610100808354040283529160200191611987565b820191906000526020600020905b81548152906001019060200180831161196a57829003601f168201915b5050505050905090565b611999612300565b73ffffffffffffffffffffffffffffffffffffffff168273ffffffffffffffffffffffffffffffffffffffff161415611a07576040517f08c379a00000000000000000000000000000000000000000000000000000000081526004016119fe90614620565b60405180910390fd5b8060056000611a14612300565b73ffffffffffffffffffffffffffffffffffffffff1673ffffffffffffffffffffffffffffffffffffffff16815260200190815260200160002060008473ffffffffffffffffffffffffffffffffffffffff1673ffffffffffffffffffffffffffffffffffffffff16815260200190815260200160002060006101000a81548160ff0219169083151502179055508173ffffffffffffffffffffffffffffffffffffffff16611ac1612300565b73ffffffffffffffffffffffffffffffffffffffff167f17307eab39ab6107e8899845ad3d59bd9653f200f220920489ca2b5937696c3183604051611b0691906135f9565b60405180910390a35050565b600e60009054906101000a900460ff16611b61576040517f08c379a0000000000000000000000000000000000000000000000000000000008152600401611b58906146b2565b60405180910390fd5b6002811115611ba5576040517f08c379a0000000000000000000000000000000000000000000000000000000008152600401611b9c90614744565b60405180910390fd5b600c5481611bb1610cc8565b611bbb91906142f0565b1115611bfc576040517f08c379a0000000000000000000000000000000000000000000000000000000008152600401611bf3906142d0565b60405180910390fd5b34816729a2241af62c0000611c119190614008565b1115611c52576040517f08c379a0000000000000000000000000000000000000000000000000000000008152600401611c49906147b0565b60405180910390fd5b60005b81811015611ca95760006001611c6b600b61280c565b611c7591906142f0565b9050600c548111611c9557611c8a338261281a565b611c94600b612838565b5b508080611ca1906140f1565b915050611c55565b5050565b611cbe611cb8612300565b836123c1565b611cfd576040517f08c379a0000000000000000000000000000000000000000000000000000000008152600401611cf490613f4d565b60405180910390fd5b611d0984848484612914565b50505050565b6000600e60009054906101000a900460ff16905090565b6060611d3182612294565b611d70576040517f08c379a0000000000000000000000000000000000000000000000000000000008152600401611d6790614842565b60405180910390fd5b6000611d7a612970565b90506000815111611d9a5760405180602001604052806000815250611dc5565b80611da484612a02565b604051602001611db592919061489e565b6040516020818303038152906040525b915050919050565b6729a2241af62c000081565b60115481565b600281565b611dec612300565b73ffffffffffffffffffffffffffffffffffffffff16611e0a6118d5565b73ffffffffffffffffffffffffffffffffffffffff1614611e60576040517f08c379a0000000000000000000000000000000000000000000000000000000008152600401611e5790614548565b60405180910390fd5b80601060006101000a81548173ffffffffffffffffffffffffffffffffffffffff021916908373ffffffffffffffffffffffffffffffffffffffff16021790555050565b60125481565b6000600560008473ffffffffffffffffffffffffffffffffffffffff1673ffffffffffffffffffffffffffffffffffffffff16815260200190815260200160002060008373ffffffffffffffffffffffffffffffffffffffff1673ffffffffffffffffffffffffffffffffffffffff16815260200190815260200160002060009054906101000a900460ff16905092915050565b611f46612300565b73ffffffffffffffffffffffffffffffffffffffff16611f646118d5565b73ffffffffffffffffffffffffffffffffffffffff161480611fda5750611f89612300565b73ffffffffffffffffffffffffffffffffffffffff16601060009054906101000a900473ffffffffffffffffffffffffffffffffffffffff1673ffffffffffffffffffffffffffffffffffffffff16145b612019576040517f08c379a000000000000000000000000000000000000000000000000000000000815260040161201090613ebb565b60405180910390fd5b60006011541461205e576040517f08c379a0000000000000000000000000000000000000000000000000000000008152600401612055906145b4565b60405180910390fd5b600060125414156120a4576040517f08c379a000000000000000000000000000000000000000000000000000000000815260040161209b9061490e565b60405180910390fd5b600c546012544060001c6120b8919061492e565b60118190555060ff601254436120ce919061495f565b11156120f957600c546001436120e4919061495f565b4060001c6120f2919061492e565b6011819055505b6000601154141561210d5760016011819055505b565b600e60009054906101000a900460ff1681565b61212a612300565b73ffffffffffffffffffffffffffffffffffffffff166121486118d5565b73ffffffffffffffffffffffffffffffffffffffff161461219e576040517f08c379a000000000000000000000000000000000000000000000000000000000815260040161219590614548565b60405180910390fd5b600073ffffffffffffffffffffffffffffffffffffffff168173ffffffffffffffffffffffffffffffffffffffff16141561220e576040517f08c379a000000000000000000000000000000000000000000000000000000000815260040161220590614a05565b60405180910390fd5b6122178161284e565b50565b60007f780e9d63000000000000000000000000000000000000000000000000000000007bffffffffffffffffffffffffffffffffffffffffffffffffffffffff1916827bffffffffffffffffffffffffffffffffffffffffffffffffffffffff1916148061228d575061228c82612b63565b5b9050919050565b60008073ffffffffffffffffffffffffffffffffffffffff166002600084815260200190815260200160002060009054906101000a900473ffffffffffffffffffffffffffffffffffffffff1673ffffffffffffffffffffffffffffffffffffffff1614159050919050565b600033905090565b816004600083815260200190815260200160002060006101000a81548173ffffffffffffffffffffffffffffffffffffffff021916908373ffffffffffffffffffffffffffffffffffffffff160217905550808273ffffffffffffffffffffffffffffffffffffffff1661237b8361133c565b73ffffffffffffffffffffffffffffffffffffffff167f8c5be1e5ebec7d5bd14f71427d1e84f3dd0314c0f7b2291e5b200ac8c7c3b92560405160405180910390a45050565b60006123cc82612294565b61240b576040517f08c379a000000000000000000000000000000000000000000000000000000000815260040161240290614a97565b60405180910390fd5b60006124168361133c565b90508073ffffffffffffffffffffffffffffffffffffffff168473ffffffffffffffffffffffffffffffffffffffff16148061248557508373ffffffffffffffffffffffffffffffffffffffff1661246d846109a8565b73ffffffffffffffffffffffffffffffffffffffff16145b8061249657506124958185611eaa565b5b91505092915050565b8273ffffffffffffffffffffffffffffffffffffffff166124bf8261133c565b73ffffffffffffffffffffffffffffffffffffffff1614612515576040517f08c379a000000000000000000000000000000000000000000000000000000000815260040161250c90614b29565b60405180910390fd5b600073ffffffffffffffffffffffffffffffffffffffff168273ffffffffffffffffffffffffffffffffffffffff161415612585576040517f08c379a000000000000000000000000000000000000000000000000000000000815260040161257c90614bbb565b60405180910390fd5b612590838383612c45565b61259b600082612308565b6001600360008573ffffffffffffffffffffffffffffffffffffffff1673ffffffffffffffffffffffffffffffffffffffff16815260200190815260200160002060008282546125eb919061495f565b925050819055506001600360008473ffffffffffffffffffffffffffffffffffffffff1673ffffffffffffffffffffffffffffffffffffffff168152602001908152602001600020600082825461264291906142f0565b92505081905550816002600083815260200190815260200160002060006101000a81548173ffffffffffffffffffffffffffffffffffffffff021916908373ffffffffffffffffffffffffffffffffffffffff160217905550808273ffffffffffffffffffffffffffffffffffffffff168473ffffffffffffffffffffffffffffffffffffffff167fddf252ad1be2c89b69c2b068fc378daa952ba7f163c4a11628f55a4df523b3ef60405160405180910390a4505050565b60006127068261133c565b905061271481600084612c45565b61271f600083612308565b6001600360008373ffffffffffffffffffffffffffffffffffffffff1673ffffffffffffffffffffffffffffffffffffffff168152602001908152602001600020600082825461276f919061495f565b925050819055506002600083815260200190815260200160002060006101000a81549073ffffffffffffffffffffffffffffffffffffffff021916905581600073ffffffffffffffffffffffffffffffffffffffff168273ffffffffffffffffffffffffffffffffffffffff167fddf252ad1be2c89b69c2b068fc378daa952ba7f163c4a11628f55a4df523b3ef60405160405180910390a45050565b600081600001549050919050565b612834828260405180602001604052806000815250612c55565b5050565b6001816000016000828254019250508190555050565b6000600a60009054906101000a900473ffffffffffffffffffffffffffffffffffffffff16905081600a60006101000a81548173ffffffffffffffffffffffffffffffffffffffff021916908373ffffffffffffffffffffffffffffffffffffffff1602179055508173ffffffffffffffffffffffffffffffffffffffff168173ffffffffffffffffffffffffffffffffffffffff167f8be0079c531659141344cd1fd0a4f28419497f9722a3daafe3b4186f6b6457e060405160405180910390a35050565b61291f84848461249f565b61292b84848484612cb0565b61296a576040517f08c379a000000000000000000000000000000000000000000000000000000000815260040161296190614c4d565b60405180910390fd5b50505050565b6060600d805461297f90613c61565b80601f01602080910402602001604051908101604052809291908181526020018280546129ab90613c61565b80156129f85780601f106129cd576101008083540402835291602001916129f8565b820191906000526020600020905b8154815290600101906020018083116129db57829003601f168201915b5050505050905090565b60606000821415612a4a576040518060400160405280600181526020017f30000000000000000000000000000000000000000000000000000000000000008152509050612b5e565b600082905060005b60008214612a7c578080612a65906140f1565b915050600a82612a759190614091565b9150612a52565b60008167ffffffffffffffff811115612a9857612a97613804565b5b6040519080825280601f01601f191660200182016040528015612aca5781602001600182028036833780820191505090505b5090505b60008514612b5757600182612ae3919061495f565b9150600a85612af2919061492e565b6030612afe91906142f0565b60f81b818381518110612b1457612b136140c2565b5b60200101907effffffffffffffffffffffffffffffffffffffffffffffffffffffffffffff1916908160001a905350600a85612b509190614091565b9450612ace565b8093505050505b919050565b60007f80ac58cd000000000000000000000000000000000000000000000000000000007bffffffffffffffffffffffffffffffffffffffffffffffffffffffff1916827bffffffffffffffffffffffffffffffffffffffffffffffffffffffff19161480612c2e57507f5b5e139f000000000000000000000000000000000000000000000000000000007bffffffffffffffffffffffffffffffffffffffffffffffffffffffff1916827bffffffffffffffffffffffffffffffffffffffffffffffffffffffff1916145b80612c3e5750612c3d82612e38565b5b9050919050565b612c50838383612ea2565b505050565b612c5f8383612fb6565b612c6c6000848484612cb0565b612cab576040517f08c379a0000000000000000000000000000000000000000000000000000000008152600401612ca290614c4d565b60405180910390fd5b505050565b6000612cd18473ffffffffffffffffffffffffffffffffffffffff16613184565b15612e2b578373ffffffffffffffffffffffffffffffffffffffff1663150b7a02612cfa612300565b8786866040518563ffffffff1660e01b8152600401612d1c9493929190614cc2565b6020604051808303816000875af1925050508015612d5857506040513d601f19601f82011682018060405250810190612d559190614d23565b60015b612ddb573d8060008114612d88576040519150601f19603f3d011682016040523d82523d6000602084013e612d8d565b606091505b50600081511415612dd3576040517f08c379a0000000000000000000000000000000000000000000000000000000008152600401612dca90614c4d565b60405180910390fd5b805181602001fd5b63150b7a0260e01b7bffffffffffffffffffffffffffffffffffffffffffffffffffffffff1916817bffffffffffffffffffffffffffffffffffffffffffffffffffffffff191614915050612e30565b600190505b949350505050565b60007f01ffc9a7000000000000000000000000000000000000000000000000000000007bffffffffffffffffffffffffffffffffffffffffffffffffffffffff1916827bffffffffffffffffffffffffffffffffffffffffffffffffffffffff1916149050919050565b612ead838383613197565b600073ffffffffffffffffffffffffffffffffffffffff168373ffffffffffffffffffffffffffffffffffffffff161415612ef057612eeb8161319c565b612f2f565b8173ffffffffffffffffffffffffffffffffffffffff168373ffffffffffffffffffffffffffffffffffffffff1614612f2e57612f2d83826131e5565b5b5b600073ffffffffffffffffffffffffffffffffffffffff168273ffffffffffffffffffffffffffffffffffffffff161415612f7257612f6d81613352565b612fb1565b8273ffffffffffffffffffffffffffffffffffffffff168273ffffffffffffffffffffffffffffffffffffffff1614612fb057612faf8282613423565b5b5b505050565b600073ffffffffffffffffffffffffffffffffffffffff168273ffffffffffffffffffffffffffffffffffffffff161415613026576040517f08c379a000000000000000000000000000000000000000000000000000000000815260040161301d90614d9c565b60405180910390fd5b61302f81612294565b1561306f576040517f08c379a000000000000000000000000000000000000000000000000000000000815260040161306690614e08565b60405180910390fd5b61307b60008383612c45565b6001600360008473ffffffffffffffffffffffffffffffffffffffff1673ffffffffffffffffffffffffffffffffffffffff16815260200190815260200160002060008282546130cb91906142f0565b92505081905550816002600083815260200190815260200160002060006101000a81548173ffffffffffffffffffffffffffffffffffffffff021916908373ffffffffffffffffffffffffffffffffffffffff160217905550808273ffffffffffffffffffffffffffffffffffffffff16600073ffffffffffffffffffffffffffffffffffffffff167fddf252ad1be2c89b69c2b068fc378daa952ba7f163c4a11628f55a4df523b3ef60405160405180910390a45050565b600080823b905060008111915050919050565b505050565b6008805490506009600083815260200190815260200160002081905550600881908060018154018082558091505060019003906000526020600020016000909190919091505550565b600060016131f28461147c565b6131fc919061495f565b90506000600760008481526020019081526020016000205490508181146132e1576000600660008673ffffffffffffffffffffffffffffffffffffffff1673ffffffffffffffffffffffffffffffffffffffff168152602001908152602001600020600084815260200190815260200160002054905080600660008773ffffffffffffffffffffffffffffffffffffffff1673ffffffffffffffffffffffffffffffffffffffff168152602001908152602001600020600084815260200190815260200160002081905550816007600083815260200190815260200160002081905550505b6007600084815260200190815260200160002060009055600660008573ffffffffffffffffffffffffffffffffffffffff1673ffffffffffffffffffffffffffffffffffffffff16815260200190815260200160002060008381526020019081526020016000206000905550505050565b60006001600880549050613366919061495f565b9050600060096000848152602001908152602001600020549050600060088381548110613396576133956140c2565b5b9060005260206000200154905080600883815481106133b8576133b76140c2565b5b90600052602060002001819055508160096000838152602001908152602001600020819055506009600085815260200190815260200160002060009055600880548061340757613406614e28565b5b6001900381819060005260206000200160009055905550505050565b600061342e8361147c565b905081600660008573ffffffffffffffffffffffffffffffffffffffff1673ffffffffffffffffffffffffffffffffffffffff168152602001908152602001600020600083815260200190815260200160002081905550806007600084815260200190815260200160002081905550505050565b8280546134ae90613c61565b90600052602060002090601f0160209004810192826134d05760008555613517565b82601f106134e957805160ff1916838001178555613517565b82800160010185558215613517579182015b828111156135165782518255916020019190600101906134fb565b5b5090506135249190613528565b5090565b5b80821115613541576000816000905550600101613529565b5090565b6000604051905090565b600080fd5b600080fd5b60007fffffffff0000000000000000000000000000000000000000000000000000000082169050919050565b61358e81613559565b811461359957600080fd5b50565b6000813590506135ab81613585565b92915050565b6000602082840312156135c7576135c661354f565b5b60006135d58482850161359c565b91505092915050565b60008115159050919050565b6135f3816135de565b82525050565b600060208201905061360e60008301846135ea565b92915050565b600081519050919050565b600082825260208201905092915050565b60005b8381101561364e578082015181840152602081019050613633565b8381111561365d576000848401525b50505050565b6000601f19601f8301169050919050565b600061367f82613614565b613689818561361f565b9350613699818560208601613630565b6136a281613663565b840191505092915050565b600060208201905081810360008301526136c78184613674565b905092915050565b6000819050919050565b6136e2816136cf565b81146136ed57600080fd5b50565b6000813590506136ff816136d9565b92915050565b60006020828403121561371b5761371a61354f565b5b6000613729848285016136f0565b91505092915050565b600073ffffffffffffffffffffffffffffffffffffffff82169050919050565b600061375d82613732565b9050919050565b61376d81613752565b82525050565b60006020820190506137886000830184613764565b92915050565b61379781613752565b81146137a257600080fd5b50565b6000813590506137b48161378e565b92915050565b600080604083850312156137d1576137d061354f565b5b60006137df858286016137a5565b92505060206137f0858286016136f0565b9150509250929050565b600080fd5b600080fd5b7f4e487b7100000000000000000000000000000000000000000000000000000000600052604160045260246000fd5b61383c82613663565b810181811067ffffffffffffffff8211171561385b5761385a613804565b5b80604052505050565b600061386e613545565b905061387a8282613833565b919050565b600067ffffffffffffffff82111561389a57613899613804565b5b6138a382613663565b9050602081019050919050565b82818337600083830152505050565b60006138d26138cd8461387f565b613864565b9050828152602081018484840111156138ee576138ed6137ff565b5b6138f98482856138b0565b509392505050565b600082601f830112613916576139156137fa565b5b81356139268482602086016138bf565b91505092915050565b6000602082840312156139455761394461354f565b5b600082013567ffffffffffffffff81111561396357613962613554565b5b61396f84828501613901565b91505092915050565b613981816136cf565b82525050565b600060208201905061399c6000830184613978565b92915050565b6000806000606084860312156139bb576139ba61354f565b5b60006139c9868287016137a5565b93505060206139da868287016137a5565b92505060406139eb868287016136f0565b9150509250925092565b60008060408385031215613a0c57613a0b61354f565b5b6000613a1a858286016136f0565b9250506020613a2b858286016137a5565b9150509250929050565b600060208284031215613a4b57613a4a61354f565b5b6000613a59848285016137a5565b91505092915050565b613a6b816135de565b8114613a7657600080fd5b50565b600081359050613a8881613a62565b92915050565b60008060408385031215613aa557613aa461354f565b5b6000613ab3858286016137a5565b9250506020613ac485828601613a79565b9150509250929050565b600067ffffffffffffffff821115613ae957613ae8613804565b5b613af282613663565b9050602081019050919050565b6000613b12613b0d84613ace565b613864565b905082815260208101848484011115613b2e57613b2d6137ff565b5b613b398482856138b0565b509392505050565b600082601f830112613b5657613b556137fa565b5b8135613b66848260208601613aff565b91505092915050565b60008060008060808587031215613b8957613b8861354f565b5b6000613b97878288016137a5565b9450506020613ba8878288016137a5565b9350506040613bb9878288016136f0565b925050606085013567ffffffffffffffff811115613bda57613bd9613554565b5b613be687828801613b41565b91505092959194509250565b60008060408385031215613c0957613c0861354f565b5b6000613c17858286016137a5565b9250506020613c28858286016137a5565b9150509250929050565b7f4e487b7100000000000000000000000000000000000000000000000000000000600052602260045260246000fd5b60006002820490506001821680613c7957607f821691505b60208210811415613c8d57613c8c613c32565b5b50919050565b7f4552433732313a20617070726f76656420717565727920666f72206e6f6e657860008201527f697374656e7420746f6b656e0000000000000000000000000000000000000000602082015250565b6000613cef602c8361361f565b9150613cfa82613c93565b604082019050919050565b60006020820190508181036000830152613d1e81613ce2565b9050919050565b7f4552433732313a20617070726f76616c20746f2063757272656e74206f776e6560008201527f7200000000000000000000000000000000000000000000000000000000000000602082015250565b6000613d8160218361361f565b9150613d8c82613d25565b604082019050919050565b60006020820190508181036000830152613db081613d74565b9050919050565b7f4552433732313a20617070726f76652063616c6c6572206973206e6f74206f7760008201527f6e6572206e6f7220617070726f76656420666f7220616c6c0000000000000000602082015250565b6000613e1360388361361f565b9150613e1e82613db7565b604082019050919050565b60006020820190508181036000830152613e4281613e06565b9050919050565b7f43616c6c6572206973206e6f7420746865206f776e6572206f72206d616e616760008201527f6572000000000000000000000000000000000000000000000000000000000000602082015250565b6000613ea560228361361f565b9150613eb082613e49565b604082019050919050565b60006020820190508181036000830152613ed481613e98565b9050919050565b7f4552433732313a207472616e736665722063616c6c6572206973206e6f74206f60008201527f776e6572206e6f7220617070726f766564000000000000000000000000000000602082015250565b6000613f3760318361361f565b9150613f4282613edb565b604082019050919050565b60006020820190508181036000830152613f6681613f2a565b9050919050565b7f496e737566666963656e742066756e64732e0000000000000000000000000000600082015250565b6000613fa360128361361f565b9150613fae82613f6d565b602082019050919050565b60006020820190508181036000830152613fd281613f96565b9050919050565b7f4e487b7100000000000000000000000000000000000000000000000000000000600052601160045260246000fd5b6000614013826136cf565b915061401e836136cf565b9250817fffffffffffffffffffffffffffffffffffffffffffffffffffffffffffffffff048311821515161561405757614056613fd9565b5b828202905092915050565b7f4e487b7100000000000000000000000000000000000000000000000000000000600052601260045260246000fd5b600061409c826136cf565b91506140a7836136cf565b9250826140b7576140b6614062565b5b828204905092915050565b7f4e487b7100000000000000000000000000000000000000000000000000000000600052603260045260246000fd5b60006140fc826136cf565b91507fffffffffffffffffffffffffffffffffffffffffffffffffffffffffffffffff82141561412f5761412e613fd9565b5b600182019050919050565b7f455243373231456e756d657261626c653a206f776e657220696e646578206f7560008201527f74206f6620626f756e6473000000000000000000000000000000000000000000602082015250565b6000614196602b8361361f565b91506141a18261413a565b604082019050919050565b600060208201905081810360008301526141c581614189565b9050919050565b7f4552433732314275726e61626c653a2063616c6c6572206973206e6f74206f7760008201527f6e6572206e6f7220617070726f76656400000000000000000000000000000000602082015250565b600061422860308361361f565b9150614233826141cc565b604082019050919050565b600060208201905081810360008301526142578161421b565b9050919050565b7f507572636861736520776f756c6420657863656564206d617820737570706c7960008201527f206f662041636365737320506173736573000000000000000000000000000000602082015250565b60006142ba60318361361f565b91506142c58261425e565b604082019050919050565b600060208201905081810360008301526142e9816142ad565b9050919050565b60006142fb826136cf565b9150614306836136cf565b9250827fffffffffffffffffffffffffffffffffffffffffffffffffffffffffffffffff0382111561433b5761433a613fd9565b5b828201905092915050565b7f455243373231456e756d657261626c653a20676c6f62616c20696e646578206f60008201527f7574206f6620626f756e64730000000000000000000000000000000000000000602082015250565b60006143a2602c8361361f565b91506143ad82614346565b604082019050919050565b600060208201905081810360008301526143d181614395565b9050919050565b7f4552433732313a206f776e657220717565727920666f72206e6f6e657869737460008201527f656e7420746f6b656e0000000000000000000000000000000000000000000000602082015250565b600061443460298361361f565b915061443f826143d8565b604082019050919050565b6000602082019050818103600083015261446381614427565b9050919050565b7f4552433732313a2062616c616e636520717565727920666f7220746865207a6560008201527f726f206164647265737300000000000000000000000000000000000000000000602082015250565b60006144c6602a8361361f565b91506144d18261446a565b604082019050919050565b600060208201905081810360008301526144f5816144b9565b9050919050565b7f4f776e61626c653a2063616c6c6572206973206e6f7420746865206f776e6572600082015250565b600061453260208361361f565b915061453d826144fc565b602082019050919050565b6000602082019050818103600083015261456181614525565b9050919050565b7f5374617274696e6720696e64657820697320616c726561647920736574000000600082015250565b600061459e601d8361361f565b91506145a982614568565b602082019050919050565b600060208201905081810360008301526145cd81614591565b9050919050565b7f4552433732313a20617070726f766520746f2063616c6c657200000000000000600082015250565b600061460a60198361361f565b9150614615826145d4565b602082019050919050565b60006020820190508181036000830152614639816145fd565b9050919050565b7f53616c65206d7573742062652061637469766520746f206d696e74204163636560008201527f7373205061737300000000000000000000000000000000000000000000000000602082015250565b600061469c60278361361f565b91506146a782614640565b604082019050919050565b600060208201905081810360008301526146cb8161468f565b9050919050565b7f596f752063616e206f6e6c79206d696e7420322041636365737320706173736560008201527f7320617420612074696d65000000000000000000000000000000000000000000602082015250565b600061472e602b8361361f565b9150614739826146d2565b604082019050919050565b6000602082019050818103600083015261475d81614721565b9050919050565b7f45746865722076616c75652073656e74206973206e6f7420636f727265637400600082015250565b600061479a601f8361361f565b91506147a582614764565b602082019050919050565b600060208201905081810360008301526147c98161478d565b9050919050565b7f4552433732314d657461646174613a2055524920717565727920666f72206e6f60008201527f6e6578697374656e7420746f6b656e0000000000000000000000000000000000602082015250565b600061482c602f8361361f565b9150614837826147d0565b604082019050919050565b6000602082019050818103600083015261485b8161481f565b9050919050565b600081905092915050565b600061487882613614565b6148828185614862565b9350614892818560208601613630565b80840191505092915050565b60006148aa828561486d565b91506148b6828461486d565b91508190509392505050565b7f5374617274696e6720696e64657820626c6f636b206d75737420626520736574600082015250565b60006148f860208361361f565b9150614903826148c2565b602082019050919050565b60006020820190508181036000830152614927816148eb565b9050919050565b6000614939826136cf565b9150614944836136cf565b92508261495457614953614062565b5b828206905092915050565b600061496a826136cf565b9150614975836136cf565b92508282101561498857614987613fd9565b5b828203905092915050565b7f4f776e61626c653a206e6577206f776e657220697320746865207a65726f206160008201527f6464726573730000000000000000000000000000000000000000000000000000602082015250565b60006149ef60268361361f565b91506149fa82614993565b604082019050919050565b60006020820190508181036000830152614a1e816149e2565b9050919050565b7f4552433732313a206f70657261746f7220717565727920666f72206e6f6e657860008201527f697374656e7420746f6b656e0000000000000000000000000000000000000000602082015250565b6000614a81602c8361361f565b9150614a8c82614a25565b604082019050919050565b60006020820190508181036000830152614ab081614a74565b9050919050565b7f4552433732313a207472616e73666572206f6620746f6b656e2074686174206960008201527f73206e6f74206f776e0000000000000000000000000000000000000000000000602082015250565b6000614b1360298361361f565b9150614b1e82614ab7565b604082019050919050565b60006020820190508181036000830152614b4281614b06565b9050919050565b7f4552433732313a207472616e7366657220746f20746865207a65726f2061646460008201527f7265737300000000000000000000000000000000000000000000000000000000602082015250565b6000614ba560248361361f565b9150614bb082614b49565b604082019050919050565b60006020820190508181036000830152614bd481614b98565b9050919050565b7f4552433732313a207472616e7366657220746f206e6f6e20455243373231526560008201527f63656976657220696d706c656d656e7465720000000000000000000000000000602082015250565b6000614c3760328361361f565b9150614c4282614bdb565b604082019050919050565b60006020820190508181036000830152614c6681614c2a565b9050919050565b600081519050919050565b600082825260208201905092915050565b6000614c9482614c6d565b614c9e8185614c78565b9350614cae818560208601613630565b614cb781613663565b840191505092915050565b6000608082019050614cd76000830187613764565b614ce46020830186613764565b614cf16040830185613978565b8181036060830152614d038184614c89565b905095945050505050565b600081519050614d1d81613585565b92915050565b600060208284031215614d3957614d3861354f565b5b6000614d4784828501614d0e565b91505092915050565b7f4552433732313a206d696e7420746f20746865207a65726f2061646472657373600082015250565b6000614d8660208361361f565b9150614d9182614d50565b602082019050919050565b60006020820190508181036000830152614db581614d79565b9050919050565b7f4552433732313a20746f6b656e20616c7265616479206d696e74656400000000600082015250565b6000614df2601c8361361f565b9150614dfd82614dbc565b602082019050919050565b60006020820190508181036000830152614e2181614de5565b9050919050565b7f4e487b7100000000000000000000000000000000000000000000000000000000600052603160045260246000fdfea2646970667358221220c323a5070e0b97d9d4f6efe8384cd95bfe0891ca9ed119164b47b328005a823664736f6c634300080a0033",
  "immutableReferences": {},
  "source": "//SPDX-License-Identifier: UNLICENSED\r\npragma solidity ^0.8.0;\r\n\r\nimport \"@openzeppelin/contracts/token/ERC721/ERC721.sol\";\r\nimport \"@openzeppelin/contracts/token/ERC721/extensions/ERC721Enumerable.sol\";\r\nimport \"@openzeppelin/contracts/token/ERC721/extensions/ERC721Burnable.sol\";\r\nimport \"@openzeppelin/contracts/access/Ownable.sol\";\r\nimport \"@openzeppelin/contracts/utils/Address.sol\";\r\nimport \"@openzeppelin/contracts/utils/Counters.sol\";\r\n\r\n\r\ncontract BlackBoxAccessPass is ERC721, ERC721Enumerable, ERC721Burnable, Ownable {\r\n    using Counters for Counters.Counter;\r\n\r\n    // Counter for number of menaces \r\n    Counters.Counter private _accessPassCounter;\r\n    // Max token supply\r\n    uint public MAX_ACCESS_PASS = 5000;\r\n    // Mint Price\r\n    uint256 public constant passPrice = 3000000000000000000; //3 ETH\r\n    // Base URI\r\n    string public baseURI;\r\n    // Sale is active\r\n    bool public saleIsActive = false;\r\n    // Presale is active\r\n    uint public constant maxPassTxn = 2;\r\n    // shareholders, shares, and manager\r\n    address[1] private _shareholders;\r\n\r\n    address private _manager;\r\n    // starting index and block and provenance\r\n    uint256 public startingIndex;\r\n\r\n    uint256 public startingIndexBlock;\r\n\r\n    string public provenance;\r\n\r\n    // constructor\r\n    constructor() ERC721(\"BLACK BOX COLLECTIVE ACCESS PASS\", \"ACCESS PASS\") Ownable() {\r\n        // shareholders test network\r\n        _shareholders[0] = 0x24209282E198E7A807806F55a3322b98d3C65B29;\r\n\r\n    }\r\n\r\n    /** Set Manager */\r\n    function setManager(address manager) public onlyOwner {\r\n        _manager = manager;\r\n    }\r\n    \r\n    /**\r\n     * Throws if called by any account other than the owner or manager.\r\n     */\r\n    modifier onlyOwnerOrManager() {\r\n        require(owner() == _msgSender() || _manager == _msgSender(), \"Caller is not the owner or manager\");\r\n        _;\r\n    }\r\n\r\n    /**\r\n     * Set base URI\r\n     */\r\n    function setBaseURI(string memory newBaseURI) public onlyOwnerOrManager {\r\n        baseURI = newBaseURI;\r\n    }\r\n    \r\n    function _baseURI() internal view virtual override returns (string memory){\r\n        return baseURI;\r\n    }\r\n\r\n    function totalToken() public view returns (uint256) {\r\n        return _accessPassCounter.current();\r\n    }\r\n    \r\n    function contractBalance() public view onlyOwnerOrManager returns (uint256) {\r\n        return address(this).balance;\r\n    }\r\n\r\n\r\n    /*\r\n    * Set Sale\r\n    */\r\n    function flipSale() public onlyOwnerOrManager {\r\n        saleIsActive = !saleIsActive;\r\n    }\r\n\r\n    function stateSale() public view returns (bool){\r\n        return saleIsActive;\r\n    }\r\n\r\n\r\n    /**\r\n     * Withdraw \r\n    */\r\n    function withdraw(uint256 amount) public payable onlyOwnerOrManager{\r\n        require(address(this).balance >= amount, \"Insufficent funds.\");\r\n        \r\n        uint256 len = _shareholders.length;\r\n        uint256 payment = amount * 10 ** 18;\r\n        payment = payment / len;\r\n        for (uint256 i=0; i<len; i++){\r\n            // send payment to owner wallet\r\n            payable(_shareholders[i]).transfer(payment);\r\n        }\r\n    }\r\n\r\n    /*\r\n    * Mint reserved NFTs for giveaways, devs, etc.\r\n    */\r\n    function reserveMintAccessPass(uint256 reserveAmount, address mintAddress) public onlyOwnerOrManager {\r\n        require(totalSupply() <= MAX_ACCESS_PASS, \"Purchase would exceed max supply of Access Passes\");\r\n        uint256 supply = _accessPassCounter.current();\r\n        for (uint256 i=0; i<reserveAmount; i++){\r\n            _safeMint(mintAddress, supply + 1);\r\n            _accessPassCounter.increment();\r\n            supply = _accessPassCounter.current();\r\n        }\r\n    }\r\n\r\n\r\n    /**\r\n     * Mint Menace\r\n    */\r\n    function mintAccessPass(uint256 numberOfTokens) public payable {\r\n        require(saleIsActive, \"Sale must be active to mint Access Pass\");\r\n        require(numberOfTokens <= maxPassTxn, \"You can only mint 2 Access passes at a time\");\r\n        require(totalSupply() + numberOfTokens <= MAX_ACCESS_PASS, \"Purchase would exceed max supply of Access Passes\");\r\n        require(passPrice * numberOfTokens <= msg.value, \"Ether value sent is not correct\");\r\n\r\n        for (uint256 i=0; i<numberOfTokens; i++){\r\n            uint256 mintIndex = _accessPassCounter.current()+1;\r\n            if (mintIndex <= MAX_ACCESS_PASS){\r\n                _safeMint(msg.sender, mintIndex);\r\n                _accessPassCounter.increment();\r\n            }\r\n        }\r\n    }\r\n\r\n    /**\r\n     * Set the starting index for the collection.\r\n     */\r\n    function setStartingIndex() public onlyOwnerOrManager {\r\n        require(startingIndex == 0, \"Starting index is already set\");\r\n        require(startingIndexBlock != 0, \"Starting index block must be set\");\r\n        \r\n        startingIndex = uint(blockhash(startingIndexBlock)) % MAX_ACCESS_PASS;\r\n        // Just a sanity case in the worst case if this function is called late (EVM only stores last 256 block hashes).\r\n        if (block.number - startingIndexBlock > 255) {\r\n            startingIndex = uint(blockhash(block.number - 1)) % MAX_ACCESS_PASS;\r\n        }\r\n        // Prevent default sequence.\r\n        if (startingIndex == 0) {\r\n            startingIndex = 1;\r\n        }\r\n    }\r\n\r\n    /**\r\n     * Set the starting index block for the collection. Usually, this will be set after the first sale mint.\r\n     */\r\n    function emergencySetStartingIndexBlock() public onlyOwnerOrManager {\r\n        require(startingIndex == 0, \"Starting index is already set\");\r\n        \r\n        startingIndexBlock = block.number;\r\n    }\r\n\r\n    /*     \r\n    * Set provenance once it's calculated.\r\n    */\r\n    function setProvenanceHash(string memory provenanceHash) public onlyOwnerOrManager {\r\n        provenance = provenanceHash;\r\n    }\r\n\r\n    /**\r\n     * Required for ERC721Enumerable and ERC721\r\n     */\r\n    function _beforeTokenTransfer(address from, address to, uint256 tokenId) internal override(ERC721, ERC721Enumerable) {\r\n        super._beforeTokenTransfer(from, to, tokenId);\r\n    }\r\n\r\n    function supportsInterface(bytes4 interfaceId) public view override(ERC721, ERC721Enumerable) returns (bool) {\r\n        return super.supportsInterface(interfaceId);\r\n    }\r\n\r\n}",
  "sourcePath": "C:\\Users\\nickn\\BlackBoxCollective\\AccessPass-NFT\\src\\contracts\\BlackBoxAccessPass.sol",
  "compiler": {
    "name": "solc",
    "version": "0.8.10+commit.fc410830.Emscripten.clang"
  },
  "schemaVersion": "3.4.3",
  "updatedAt": "2021-11-16T17:29:14.707Z",
  "networkType": "ethereum",
  "devdoc": {
    "kind": "dev",
    "methods": {
      "approve(address,uint256)": {
        "details": "See {IERC721-approve}."
      },
      "balanceOf(address)": {
        "details": "See {IERC721-balanceOf}."
      },
      "burn(uint256)": {
        "details": "Burns `tokenId`. See {ERC721-_burn}. Requirements: - The caller must own `tokenId` or be an approved operator."
      },
      "getApproved(uint256)": {
        "details": "See {IERC721-getApproved}."
      },
      "isApprovedForAll(address,address)": {
        "details": "See {IERC721-isApprovedForAll}."
      },
      "name()": {
        "details": "See {IERC721Metadata-name}."
      },
      "owner()": {
        "details": "Returns the address of the current owner."
      },
      "ownerOf(uint256)": {
        "details": "See {IERC721-ownerOf}."
      },
      "renounceOwnership()": {
        "details": "Leaves the contract without owner. It will not be possible to call `onlyOwner` functions anymore. Can only be called by the current owner. NOTE: Renouncing ownership will leave the contract without an owner, thereby removing any functionality that is only available to the owner."
      },
      "safeTransferFrom(address,address,uint256)": {
        "details": "See {IERC721-safeTransferFrom}."
      },
      "safeTransferFrom(address,address,uint256,bytes)": {
        "details": "See {IERC721-safeTransferFrom}."
      },
      "setApprovalForAll(address,bool)": {
        "details": "See {IERC721-setApprovalForAll}."
      },
      "symbol()": {
        "details": "See {IERC721Metadata-symbol}."
      },
      "tokenByIndex(uint256)": {
        "details": "See {IERC721Enumerable-tokenByIndex}."
      },
      "tokenOfOwnerByIndex(address,uint256)": {
        "details": "See {IERC721Enumerable-tokenOfOwnerByIndex}."
      },
      "tokenURI(uint256)": {
        "details": "See {IERC721Metadata-tokenURI}."
      },
      "totalSupply()": {
        "details": "See {IERC721Enumerable-totalSupply}."
      },
      "transferFrom(address,address,uint256)": {
        "details": "See {IERC721-transferFrom}."
      },
      "transferOwnership(address)": {
        "details": "Transfers ownership of the contract to a new account (`newOwner`). Can only be called by the current owner."
      }
    },
    "version": 1
  },
  "userdoc": {
    "kind": "user",
    "methods": {
      "emergencySetStartingIndexBlock()": {
        "notice": "Set the starting index block for the collection. Usually, this will be set after the first sale mint."
      },
      "mintAccessPass(uint256)": {
        "notice": "Mint Menace"
      },
      "setBaseURI(string)": {
        "notice": "Set base URI"
      },
      "setManager(address)": {
        "notice": "Set Manager "
      },
      "setStartingIndex()": {
        "notice": "Set the starting index for the collection."
      },
      "withdraw(uint256)": {
        "notice": "Withdraw "
      }
    },
    "version": 1
  }
}